:0600CB000109000108001C
:10000300759850758920758DFD758BFDD2ACD2AF77
:03001300D28E2268
:090016008509993099FDC2992277
:1000B200120003E508640170FA120016F50880F3D5
:030023000200C216
:0900C200859909C2987508013204
:03000000020026D5
:0C002600787FE4F6D8FD75810902006DBA
:100032000200B2E493A3F8E493A34003F68001F232
:1000420008DFF48029E493A3F85407240CC8C333CF
:10005200C4540F4420C8834004F456800146F6DF9E
:10006200E4800B01020408102040809000CBE47E63
:10007200019360BCA3FF543F30E509541FFEE49393
:10008200A360010ECF54C025E060A840B8E493A35A
:10009200FAE493A3F8E493A3C8C582C8CAC583CA85
:1000A200F0A3C8C582C8CAC583CADFE9DEE780BE3D
:0100D100002E
:00000001FF
