:1000D7000510767938383F08080001020304050641
:0100E7000711
:1000B700E4FDFCC3ED9FEC9E5015E4FAFB0BBB007F
:0F00C700010AEB64784A70F50DBD00010C80E46E
:0100D6002207
:10008F00E4F583F582AF8274082FF8E6F5B0AF82FE
:10009F0074102FF8E6F5A07F057E001200B7A3E5D8
:0700AF00826405458370DE49
:0100B6002227
:0500E90012008F80FBF6
:03000000020003F8
:0C000300787FE4F6D8FD75811402004AF5
:10000F000200E9E493A3F8E493A34003F68001F21E
:10001F0008DFF48029E493A3F85407240CC8C333F2
:10002F00C4540F4420C8834004F456800146F6DFC1
:10003F00E4800B01020408102040809000D7E47E7A
:10004F00019360BCA3FF543F30E509541FFEE493B6
:10005F00A360010ECF54C025E060A840B8E493A37D
:10006F00FAE493A3F8E493A3C8C582C8CAC583CAA8
:10007F00F0A3C8C582C8CAC583CADFE9DEE780BE60
:0100E8000017
:00000001FF
