:10011300080A09080C04060203010108000109008A
:1000F300E4FDFCC3ED9FEC9E5015E4FAFB0BBB0043
:0F010300010AEB64784A70F50DBD00010C80E431
:0101120022CA
:1000D100900007AF82740A2FF8E6F5A07F0A7E0030
:1000E1001200F3E582158270021583E58245837063
:0100F100E22C
:0100F20022EB
:10012400758901758C3C758AB0D2A9D2AFD28C2264
:0500030012012480FE43
:03000B0002009A56
:10009A00C0E0C0D075D000C000C007758C3CD2B497
:1000AA000508E50864147016AF090509740A2FF8E3
:1000BA00E6F5A0E50964087002F509750800D0079D
:0700CA00D000D0D0D0E032DD
:0300000002000EED
:0C000E00787FE4F6D8FD758111020055E2
:10001A00020003E493A3F8E493A34003F68001F2F9
:10002A0008DFF48029E493A3F85407240CC8C333E7
:10003A00C4540F4420C8834004F456800146F6DFB6
:10004A00E4800B0102040810204080900113E47E32
:10005A00019360BCA3FF543F30E509541FFEE493AB
:10006A00A360010ECF54C025E060A840B8E493A372
:10007A00FAE493A3F8E493A3C8C582C8CAC583CA9D
:10008A00F0A3C8C582C8CAC583CADFE9DEE780BE55
:0101230000DB
:00000001FF
