:1001A900020800000B133031323334353637383911
:0C01B90000090A564F4C544147453A00DB
:0A018300F8E6FF1201F27F057E008E
:10018D00E4FDEDC39FE49E5012E4FCECC39478743F
:0B019D0080948050030C80F30D80E77D
:0101A8002234
:1001C600C2B0D2B0120189C2B030B1FDD2B2AFA076
:0801D6007508008F09C2B22276
:1001DE00C2B3C2B4C2B58F907F017E0012018DD220
:0401EE00B5C2B522BF
:1001F200D2B3C2B4C2B58F907F017E0012018DD2FC
:04020200B5C2B522AA
:100206007F381201DE7F0C1201DE7F061201DE7FCF
:04021600010201DE02
:10000300E4FBFAF51EF51FAE08AF09FC7D6412018F
:100013001C7D3312012E8E088F097C007D64120132
:100023002E8F1EAE08AF097C007D6412012E7E0068
:100033007F0ACFCDCFCECCCE12012E8F1FAE08AF0D
:10004300097C007D0A12012EA9057F801201DE744E
:100053000A2B1201830BBB00010AEB64084A70EF01
:100063007FC01201DE1201897413251E1201837FE2
:100073002E1201867413251F120183741329120192
:0D008300837F561201F27F057E0002018D81
:0B021A001202061200031201C680F859
:030000000200906B
:0C009000787FE4F6D8FD75811F0200D7D0
:10011C00EF8DF0A4A8F0CF8CF0A428CE8DF0A42EF7
:02012C00FE22B1
:10012E00BC000BBE0029EF8DF084FFADF022E4CCB5
:10013E00F875F008EF2FFFEE33FEEC33FCEE9DEC7E
:10014E00984005FCEE9DFE0FD5F0E9E4CEFD22EDC4
:10015E00F8F5F0EE8420D21CFEADF075F008EF2F0E
:10016E00FFED33FD4007985006D5F0F222C398FDFF
:05017E000FD5F0EA229C
:10009C0002021AE493A3F8E493A34003F68001F25E
:1000AC0008DFF48029E493A3F85407240CC8C33365
:1000BC00C4540F4420C8834004F456800146F6DF34
:1000CC00E4800B01020408102040809001A9E47E1A
:1000DC00019360BCA3FF543F30E509541FFEE49329
:1000EC00A360010ECF54C025E060A840B8E493A3F0
:1000FC00FAE493A3F8E493A3C8C582C8CAC583CA1B
:10010C00F0A3C8C582C8CAC583CADFE9DEE780BED2
:0101C5000039
:00000001FF
