:0C00D1000A083F065B4F666D7D077F6FDD
:1000B100E4FDFCC3ED9FEC9E5015E4FAFB0BBB0085
:0F00C100010AEB64784A70F50DBD00010C80E474
:0100D000220D
:10008F00E4F583F582AF8274082FF8E6F5A0F4F556
:10009F00907FE87E031200B1A3E582640A45837066
:0100AF00E46C
:0100B000222D
:0500DE0012008F80FB01
:03000000020003F8
:0C000300787FE4F6D8FD75811102004AF8
:10000F000200DEE493A3F8E493A34003F68001F229
:10001F0008DFF48029E493A3F85407240CC8C333F2
:10002F00C4540F4420C8834004F456800146F6DFC1
:10003F00E4800B01020408102040809000D1E47E80
:10004F00019360BCA3FF543F30E509541FFEE493B6
:10005F00A360010ECF54C025E060A840B8E493A37D
:10006F00FAE493A3F8E493A3C8C582C8CAC583CAA8
:10007F00F0A3C8C582C8CAC583CADFE9DEE780BE60
:0100DD000022
:00000001FF
