:1001680010093F065B4F666D7D077F6F777C395EB0
:0501780079710108632C
:10014800E4FDFCC3ED9FEC9E5015E4FAFB0BBB00ED
:0F015800010AEB64784A70F50DBD00010C80E4DC
:010167002275
:10000300E4FFF519F97590F0AE90EE64F060167F99
:10001300147E00120148AF9075900FAE90EE640FFE
:100023006003859019E5192FFF7E0064EE7002F5D9
:1000330008EF64ED4E7003750801EF64EB4E700337
:10004300750802EF64E74E7003750803EF64DE4E34
:100053007003750804EF64DD4E7003750805EF64E3
:10006300DB4E7003750806EF64D74E7003750807FF
:10007300EF64BE4E7003750808EF64BD4E700375E0
:100083000809EF64BB4E700375080AEF64B74E703E
:100093000375080BEF647E4E700375080CEF647DE7
:1000A3004E700375080DEF647B4E700375080EEFF9
:0800B30064774E700375080F1D
:0100BB002222
:09017E0074092508F8E6F5A02239
:0801870012000312017E80F852
:030000000200BC3F
:0C00BC00787FE4F6D8FD7581190201037D
:1000C800020187E493A3F8E493A34003F68001F2C6
:1000D80008DFF48029E493A3F85407240CC8C33339
:1000E800C4540F4420C8834004F456800146F6DF08
:1000F800E4800B0102040810204080900168E47E2F
:10010800019360BCA3FF543F30E509541FFEE493FC
:10011800A360010ECF54C025E060A840B8E493A3C3
:10012800FAE493A3F8E493A3C8C582C8CAC583CAEE
:10013800F0A3C8C582C8CAC583CADFE9DEE780BEA6
:01017D000081
:00000001FF
