:080104000208F8E0020A30C015
:1000D200E4FDFCC3ED9FEC9E5015E4FAFB0BBB0064
:0F00E200010AEB64784A70F50DBD00010C80E453
:0100F10022EC
:05010D00C2A0D2A222F5
:1000F200758901758CD8758AF0D2A9D2AFD28CC21B
:02010200A12238
:080003001200F212010D80FB56
:03000B0002009A56
:0B009A00C0E0C0D075D000C000C0075F
:1000A500AF0D74082FF8E6F58C740A2FF8E6F58A7B
:1000B500B2A1050DE50D7002050C6402450C700436
:0400C500F50CF50D34
:0900C900D007D000D0D0D0E03205
:0300000002000EED
:0C000E00787FE4F6D8FD75810D020055E6
:10001A00020003E493A3F8E493A34003F68001F2F9
:10002A0008DFF48029E493A3F85407240CC8C333E7
:10003A00C4540F4420C8834004F456800146F6DFB6
:10004A00E4800B0102040810204080900104E47E41
:10005A00019360BCA3FF543F30E509541FFEE493AB
:10006A00A360010ECF54C025E060A840B8E493A372
:10007A00FAE493A3F8E493A3C8C582C8CAC583CA9D
:10008A00F0A3C8C582C8CAC583CADFE9DEE780BE55
:01010C0000F2
:00000001FF
