:10010B000114000C0848454C4C4F20574F524C449F
:01011B0000E3
:0700D00012012D7F057E00E7
:1000D700E4FDFCC3ED9FEC9E5015E4FAFB0BBB005F
:0F00E700010AEB64784A70F50DBD00010C80E44E
:0100F60022E7
:10011D00C2B0C2B1C2B28FA01200D3D2B2C2B2224B
:10012D00D2B0C2B1C2B28FA01200D3D2B2C2B2222B
:1000F7007F3812011D7F0C12011D7F0612011D7F23
:040107000102011DD3
:10008F007F8012011D7F327E001200D77F7A12000F
:10009F00D07F651200D07F791200D07F731200D00D
:1000AF007F671200D07FC312011D74082514F8E674
:1000BF00FF60071200D0051480F07F057E0002005C
:0100CF00D759
:08013D001200F712008F80FB95
:03000000020003F8
:0C000300787FE4F6D8FD75811402004AF5
:10000F0002013DE493A3F8E493A34003F68001F2C9
:10001F0008DFF48029E493A3F85407240CC8C333F2
:10002F00C4540F4420C8834004F456800146F6DFC1
:10003F00E4800B010204081020408090010BE47E45
:10004F00019360BCA3FF543F30E509541FFEE493B6
:10005F00A360010ECF54C025E060A840B8E493A37D
:10006F00FAE493A3F8E493A3C8C582C8CAC583CAA8
:10007F00F0A3C8C582C8CAC583CADFE9DEE780BE60
:01011C0000E2
:00000001FF
