:1000C7000109000108000A0A3F065B4F666D7D07BC
:0200D7007F6F39
:10008F00E4FDFCC3ED9FEC9E5015E4FAFB0BBB00A7
:0F009F00010AEB64784A70F50DBD00010C80E496
:0100AE00222F
:1000AF00209007E5087003750801E50864017007E3
:0800BF003090040509F5082248
:1000DA00740A2509F8E6F5A0E509640A7002F5092B
:0100EA0022F3
:0800EB001200AF1200DA80F8E8
:03000000020003F8
:0C000300787FE4F6D8FD75811302004AF6
:10000F000200EBE493A3F8E493A34003F68001F21C
:10001F0008DFF48029E493A3F85407240CC8C333F2
:10002F00C4540F4420C8834004F456800146F6DFC1
:10003F00E4800B01020408102040809000C7E47E8A
:10004F00019360BCA3FF543F30E509541FFEE493B6
:10005F00A360010ECF54C025E060A840B8E493A37D
:10006F00FAE493A3F8E493A3C8C582C8CAC583CAA8
:10007F00F0A3C8C582C8CAC583CADFE9DEE780BE60
:0100D9000026
:00000001FF
