:10008F00205009007EFFC3C3FF7E00000043FFFF27
:10009F000300000063C7CFDBF363000042DBDBDB51
:1000AF00FF6600003E46FFFF06060000F6F7D3D3BB
:1000BF00DFDE00007EEFDBDBDF4E0000C0C0C7FFDE
:1000CF00F8C00000FFFFDBDBFFFF000072FBDBDB94
:0D00DF00FF7E00085A010204081020408036
:10013700E5087006209003750801E508640170075B
:100147003090040559F508E559640A7002F55922FB
:1000ED00E4E55975F008A4ACF0FDE5592401FFE4F1
:1000FD0033FEEF7803C333CE33CED8F9FFC3ED9F74
:10010D00EE6480F8EC648098501FE55975F008A4F2
:10011D00FEC3ED9E245AF8E6F4F5A074092DF8E619
:09012D00F5B00DBD00010C80C10C
:0101360022A6
:080157001200ED12013780F8DF
:03000000020003F8
:0C000300787FE4F6D8FD75816102004AA8
:10000F00020157E493A3F8E493A34003F68001F2AF
:10001F0008DFF48029E493A3F85407240CC8C333F2
:10002F00C4540F4420C8834004F456800146F6DFC1
:10003F00E4800B010204081020408090008FE47EC2
:10004F00019360BCA3FF543F30E509541FFEE493B6
:10005F00A360010ECF54C025E060A840B8E493A37D
:10006F00FAE493A3F8E493A3C8C582C8CAC583CAA8
:10007F00F0A3C8C582C8CAC583CADFE9DEE780BE60
:0100EC000013
:00000001FF
