:10009A00010800010900100A3F065B4F666D7D07E3
:0800AA007F6F777C395E7971EC
:1000DB00758901758C5F758AAFD2A9D2AFD28C228C
:1000CA00740A2509F8E6F5A0E50964107002F50935
:0100DA002203
:080003001200DB1200CA80FBB1
:03000B000200B33D
:1000B300C0E0758C3C758AAF0508E50864147004CC
:0700C3000509F508D0E03249
:0300000002000EED
:0C000E00787FE4F6D8FD758119020055DA
:10001A00020003E493A3F8E493A34003F68001F2F9
:10002A0008DFF48029E493A3F85407240CC8C333E7
:10003A00C4540F4420C8834004F456800146F6DFB6
:10004A00E4800B010204081020408090009AE47EAC
:10005A00019360BCA3FF543F30E509541FFEE493AB
:10006A00A360010ECF54C025E060A840B8E493A372
:10007A00FAE493A3F8E493A3C8C582C8CAC583CA9D
:10008A00F0A3C8C582C8CAC583CADFE9DEE780BE55
:0100B200004D
:00000001FF
