:10021700011A00020B0000020D0000020900000B8A
:0C0227000F3031323334353637383900AF
:1001E100F8E6FF1202587F057E001201F77F3A12EE
:0601F10002587F057E00AC
:1001F700E4FDFCC3ED9FEC9E5015E4FAFB0BBB003E
:0F020700010AEB64784A70F50DBD00010C80E42C
:0102160022C5
:10024800C2B0C2B1C2B28FA01201F3D2B2C2B222FE
:10025800D2B0C2B1C2B28FA01201F3D2B2C2B222DE
:100234007F381202487F0C1202487F061202487F60
:040244000102024869
:10000E00E4F51BF51CF51DF51EF51FAE0BAF0CFC34
:10001E007D0A12018C8F1BAE0BAF0C7C007D0A1279
:10002E00018C8D1CAE0DAF0E7C007D0A12018C8FE3
:10003E001DAE0DAF0E7C007D0A12018C8D1EAE0919
:10004E00AF0A7C007D0A12018C8F1FAE09AF0A7CAD
:10005E00007D0A12018CA9057F801202481201F35D
:10006E00740F251BF8E6FF1201F0740F251C120108
:10007E00E1740F251DF8E6FF1201F0740F251E1214
:10008E0001E1740F251FF8E6FF1201F0740F29F835
:0C009E00E6FF1202587F057E000201F709
:10026800758901758C3C758AB0D2A9D2AFD28C221F
:0B02780012023412026812000E80FB1C
:03000B00020136B9
:10013600C0E0758C3C758AB00508E5086414700B40
:10014600050AE50A70020509750800E50A643C45DA
:1001560009700E050EE50E7002050D750900750A8B
:1001660000E50E643C450D700E050CE50C700205AD
:100176000B750D00750E00E50C6418450B7004F543
:060186000BF50CD0E03285
:030000000200AA51
:0C00AA00787FE4F6D8FD75811F0200F19C
:10018C00BC000BBE0029EF8DF084FFADF022E4CC57
:10019C00F875F008EF2FFFEE33FEEC33FCEE9DEC20
:1001AC00984005FCEE9DFE0FD5F0E9E4CEFD22ED66
:1001BC00F8F5F0EE8420D21CFEADF075F008EF2FB0
:1001CC00FFED33FD4007985006D5F0F222C398FDA1
:0501DC000FD5F0EA223E
:1000B600020278E493A3F8E493A34003F68001F2E6
:1000C60008DFF48029E493A3F85407240CC8C3334B
:1000D600C4540F4420C8834004F456800146F6DF1A
:1000E600E4800B0102040810204080900217E47E91
:1000F600019360BCA3FF543F30E509541FFEE4930F
:10010600A360010ECF54C025E060A840B8E493A3D5
:10011600FAE493A3F8E493A3C8C582C8CAC583CA00
:10012600F0A3C8C582C8CAC583CADFE9DEE780BEB8
:0102330000CA
:00000001FF
