:0C011700C291C292D2928FA07F057E00A0
:10012300E4FDFCC3ED9FEC9E5015E4FAFB0BBB0012
:0F013300010AEB64784A70F50DBD00010C80E401
:01014200229A
:08019F00D290120117C2922256
:0801A700C290120117C292225E
:100003007F381201A77F0C1201A77F061201A77F79
:04001300010201A73E
:100143000108000109000C19000000000000000074
:10015300000000000F0A52656365697665642044F8
:050163006174613A0027
:10018C00759850758920758DFD758BFDD2ACD2AFED
:03019C00D28E22DE
:1000B200E4F525F5267F801201A77F057E00120157
:1000C20023E4F525740A2525F8E6FF12019F7F0532
:1000D2007E001201230525E525C3940F40E6E508BD
:1000E200640170307FC01201A77F057E00120123D8
:1000F200E4F526E526C39509501574192526F8E678
:10010200FF12019F7F057E00120123052680E4E491
:04011200F509F508EE
:0101160022C6
:0B00170012018C1200031200B280FBEB
:030023000201696E
:10016900C0E0C0D075D000C000C007AF0905097450
:10017900192FF8A699C298750801D007D000D0D0D8
:03018900D0E03291
:03000000020026D5
:0C002600787FE4F6D8FD75812602006D9D
:10003200020017E493A3F8E493A34003F68001F2CD
:1000420008DFF48029E493A3F85407240CC8C333CF
:10005200C4540F4420C8834004F456800146F6DF9E
:10006200E4800B0102040810204080900143E47EEA
:10007200019360BCA3FF543F30E509541FFEE49393
:10008200A360010ECF54C025E060A840B8E493A35A
:10009200FAE493A3F8E493A3C8C582C8CAC583CA85
:1000A200F0A3C8C582C8CAC583CADFE9DEE780BE3D
:010168000096
:00000001FF
