:10024100020800000B0A3031323334353637383981
:10025100000D1554656D70657261747572653A00B3
:0702620012019B7F647E0086
:10026900D3EF9400EE94004007EF1F70F31E80F067
:010279002262
:1001F100E4FDD2B37F08FE120269C2B37F507E00D4
:10020100120269D2B37F0E7E00120269A2B3E433F7
:08021100FD7F147E000202696A
:02019B00AD07AE
:10019D007B08EBD3940074809480401DC2B3ED13A3
:1001AD0092B330B3047F0180027F057E0012026995
:0901BD00D2B3EDC313FD1B80D980
:0101C6002216
:10021900E4FC7D08EDD39400748094804017C2B348
:10022900EC13FCD2B330B3034304807F047E001285
:0702390002691D80DFAF0424
:01024000229B
:10016000E4FFFEFB1201F17FCC12019B7F441202DF
:10017000621201F17FCC12019B7FBE120262120259
:1001800019AB07120219EFFE7C00E42BFFEC3EC412
:0A019000F854F0C8EFC4540F48FF04
:01019A002242
:0A01C700F8E6FF12029E7F057E009D
:1001D100E4FDFCC3ED9FEC9E5015E4FAFB0BBB0064
:0F01E100010AEB64784A70F50DBD00010C80E453
:0101F00022EC
:10028E00C2B0C2B1C2B28F901201CDD2B2C2B222EE
:10029E00D2B0C2B1C2B28F901201CDD2B2C2B222CE
:10027A007F3812028E7F0C12028E7F0612028E7F48
:04028A000102028EDD
:10008F00E4F522F523F524AE08AF09FC7D641201D7
:10009F000B8F22AE08AF097C007D6412010B7E002E
:1000AF007F0ACFCDCFCECCCE12010B8F23AE08AFB0
:1000BF00097C007D0A12010BA9057F8012028E7444
:1000CF00152524F8E6FF600712029E052480F07FB5
:1000DF00C012028E1201CD740A25221201C7740AB2
:1000EF0025231201C7740A291201C77FDF1201CA23
:0C00FF007F4312029E7F057E000201D1AB
:1002AE0012027A1201607508008F0912008F80F316
:03000000020003F8
:0C000300787FE4F6D8FD75812402004AE5
:10010B00BC000BBE0029EF8DF084FFADF022E4CCD8
:10011B00F875F008EF2FFFEE33FEEC33FCEE9DECA1
:10012B00984005FCEE9DFE0FD5F0E9E4CEFD22EDE7
:10013B00F8F5F0EE8420D21CFEADF075F008EF2F31
:10014B00FFED33FD4007985006D5F0F222C398FD22
:05015B000FD5F0EA22BF
:10000F000202AEE493A3F8E493A34003F68001F257
:10001F0008DFF48029E493A3F85407240CC8C333F2
:10002F00C4540F4420C8834004F456800146F6DFC1
:10003F00E4800B0102040810204080900241E47E0E
:10004F00019360BCA3FF543F30E509541FFEE493B6
:10005F00A360010ECF54C025E060A840B8E493A37D
:10006F00FAE493A3F8E493A3C8C582C8CAC583CAA8
:10007F00F0A3C8C582C8CAC583CADFE9DEE780BE60
:01026100009C
:00000001FF
