:10013600011E03012000011F0C0121000C2D0000EF
:10014600000000000000000000000B2230313233B6
:10015600343536373839000B085265616479212009
:10016600202020000B134E6F7420526561647921A4
:010176000088
:10021000759850758920758DFD758BFDD2ACD2AF68
:03022000D28E2259
:05023C00D289D2A822C6
:10017800E4FFE51EB40118EFC3951F500F742D2F2F
:10018800F8E6F5993099FDC2990F80EB751E02E5E6
:100198001EB40219E4FFEFC3951F5009742D2FF800
:0D01A800E4F60F80F1E4F520751E03F5214B
:0101B5002227
:1000B200E4F539F53AF53BE51E640370767F80126C
:1000C20002347F017E001201F0E4F539E539C3956F
:1000D2001F5015742D2539F8E6FF12001A7F017E94
:1000E200001201F0053980E47FC01202347F017EE4
:1000F200001201F0E5216004E52060177413253A2F
:10010200F8E6FF602E12001A7F017E001201F00550
:100112003A80E9E521B4011BE52070177408253BFC
:10012200F8E6FF600E12001A7F017E001201F00550
:030132003B80E926
:0101350022A7
:1002230012021012023C1200061201781200B28070
:01023300F8D2
:03000300020241B5
:04024100751E0132F3
:030023000201B621
:1001B600C0E0C0D075D000C000C007AF20052074D5
:1001C6002D2FF8A699C298751E03E520B51F067552
:0E01D6002000752101D007D000D0D0D0E0323B
:0C01E400C291C292D2928FA07F057E00D3
:1001F000E4FDFCC3ED9FEC9E5015E4FAFB0BBB0045
:0F020000010AEB64784A70F50DBD00010C80E433
:01020F0022CC
:08001A00D2901201E4C292220F
:08023400C2901201E4C2922203
:100006007F381202347F0C1202347F061202347FCC
:0400160001020234AD
:03000000020026D5
:0C002600787FE4F6D8FD75813B02006D88
:10003200020223E493A3F8E493A34003F68001F2BF
:1000420008DFF48029E493A3F85407240CC8C333CF
:10005200C4540F4420C8834004F456800146F6DF9E
:10006200E4800B0102040810204080900136E47EF7
:10007200019360BCA3FF543F30E509541FFEE49393
:10008200A360010ECF54C025E060A840B8E493A35A
:10009200FAE493A3F8E493A3C8C582C8CAC583CA85
:1000A200F0A3C8C582C8CAC583CADFE9DEE780BE3D
:010177000087
:00000001FF
