:1000D8000510767938383F080801020408102040D6
:0100E8008097
:1000B800E4FDFCC3ED9FEC9E5015E4FAFB0BBB007E
:0F00C800010AEB64784A70F50DBD00010C80E46D
:0100D7002206
:10008F00E4F583F582AF8274082FF8E6F4F590AFAC
:10009F008274102FF8E6F5A07F057E001200B8A33A
:0800AF00E5826405458370DD64
:0100B7002226
:0500EA0012008F80FBF5
:03000000020003F8
:0C000300787FE4F6D8FD75811402004AF5
:10000F000200EAE493A3F8E493A34003F68001F21D
:10001F0008DFF48029E493A3F85407240CC8C333F2
:10002F00C4540F4420C8834004F456800146F6DFC1
:10003F00E4800B01020408102040809000D8E47E79
:10004F00019360BCA3FF543F30E509541FFEE493B6
:10005F00A360010ECF54C025E060A840B8E493A37D
:10006F00FAE493A3F8E493A3C8C582C8CAC583CAA8
:10007F00F0A3C8C582C8CAC583CADFE9DEE780BE60
:0100E9000016
:00000001FF
