:1000920010093F065B4F666D7D077F6F777C395E87
:0500A200797101080066
:0900B900D288D2A8D2AFD2B22243
:1000A80074092508F8E6F5A0E50864107002F5085B
:0100B8002225
:0800C2001200B91200A880FB36
:030003000200CA2E
:0300CA00050832F4
:03000000020006F5
:0C000600787FE4F6D8FD75811802004DEB
:100012000200C2E493A3F8E493A34003F68001F242
:1000220008DFF48029E493A3F85407240CC8C333EF
:10003200C4540F4420C8834004F456800146F6DFBE
:10004200E4800B0102040810204080900092E47EBC
:10005200019360BCA3FF543F30E509541FFEE493B3
:10006200A360010ECF54C025E060A840B8E493A37A
:10007200FAE493A3F8E493A3C8C582C8CAC583CAA5
:10008200F0A3C8C582C8CAC583CADFE9DEE780BE5D
:0100A7000058
:00000001FF
