:100003000080008300860089008C008F0092009599
:100013000098009C009F00A200A500A800AB00AEC2
:1000230000B000B300B600B900BC00BF00C100C4FB
:1000330000C700C900CC00CE00D100D300D500D842
:1000430000DA00DC00DE00E000E200E400E600E8A5
:1000530000EA00EC00ED00EF00F000F200F300F422
:1000630000F600F700F800F900FA00FB00FC00FCC2
:1000730000FD00FE00FE00FF00FF00FF00FF00FF89
:1000830000FF00FF00FF00FF00FF00FF00FE00FE77
:1000930000FD00FC00FC00FB00FA00F900F800F78B
:1000A30000F600F500F300F200F000EF00ED00ECC5
:1000B30000EA00E800E600E400E300E100DE00DC23
:1000C30000DA00D800D600D300D100CE00CC00C99E
:1000D30000C700C400C100BF00BC00B900B600B433
:1000E30000B100AE00AB00A800A500A2009F009CD9
:1000F300009900960092008F008C0089008600838F
:100103000080007D0079007600730070006D006A46
:10011300006700640061005E005B005800550052F8
:10012300004F004C0049004600430041003E003BA5
:100133000039003600330031002E002C002A00273E
:10014300002500230021001F001D001B00190017BC
:100153000015001400120010000F000D000C000B1E
:10016300000900080007000600050004000300035F
:100173000002000100010000000000000000000078
:10018300000000000000000000000000000100016A
:100193000002000300030004000500060007000836
:1001A3000009000A000C000D000E001000120013DD
:1001B300001500170018001A001C001E0020002361
:1001C300002500270029002C002E003000330035C5
:1001D3000038003B003D0040004300460048004B10
:1001E300004E005100540057005A005D0060006348
:1001F30000660069006C006F007300760079007C74
:08033D00020A01F402080000AD
:10031D00E4FDFCC3ED9FEC9E5015E4FAFB0BBB0016
:0F032D00010AEB64784A70F50DBD00010C80E405
:01033C00229E
:10028F00E50945087008209005F508750901E5098D
:10029F006401450870133090107432250BF50BE490
:1002AF00350AF50AE4F508F509E50945087008204F
:1002BF009105F508750901E50964014508701430C9
:1002CF00911174CE250BF50B74FF350AF50AE4F581
:0402DF0008F50922F3
:1002E300E4F50CF50DF50CF50DE50D25E0FFE50C3A
:1002F30033FE74032FF58274003EF583740193F586
:10030300A07F017E0012031D050DE50D7002050C93
:09031300C394FFE50C940040D0F6
:01031C0022BE
:080346001202E312028F80F89D
:03000000020203F6
:0C020300787FE4F6D8FD75810D02024AF8
:10020F00020346E493A3F8E493A34003F68001F2BC
:10021F0008DFF48029E493A3F85407240CC8C333F0
:10022F00C4540F4420C8834004F456800146F6DFBF
:10023F00E4800B010204081020408090033DE47E0F
:10024F00019360BCA3FF543F30E509541FFEE493B4
:10025F00A360010ECF54C025E060A840B8E493A37B
:10026F00FAE493A3F8E493A3C8C582C8CAC583CAA6
:10027F00F0A3C8C582C8CAC583CADFE9DEE780BE5E
:0103450000B7
:00000001FF
